:100000000C94FD010C9444020C9444020C944402A0
:100010000C94AE0A0C9444020C9444020C944402D6
:100020000C9444020C9444020C94DD1F0C94AF20F9
:100030000C947A180C9444020C9444020C944402DC
:100040000C9444020C9444020C9444020C94440218
:100050000C9444020C94E2180C9444020C94440254
:100060000C9444020C9444020C9444020C944402F8
:100070000C9444020C9444020C9444020C944402E8
:100080000C9444020C9444020C9444020C944402D8
:100090000C9444020C9444020C9444020C944402C8
:1000A0000C9444020C9444020C944402130415046E
:1000B0002004170419041B041D041F042204240433
:1000C0002604310428042A042C042E0430043304AA
:1000D0007D0E7D0EAF0EAF0EF80E180F7C107C104B
:1000E0005A0F7C10FB0FFB0F6C107C107C107510EE
:1000F0000810081008100810081008100810081040
:10010000081008100810081008100810081008102F
:10011000191027102E1035103F100B110B111D1147
:100120001D1114111D111D111D110B110B11191190
:100130001D111D1119111C21432135224321352286
:100140008F21B22135220822172229001E001F000C
:100150002000210022000000000000002B001400FD
:100160001A00080015001700000000000000E00061
:1001700004001600070009000A000000000000004B
:10018000E1001D001B000600190005000000000032
:100190000000E200E30000002C000000000000006E
:1001A00000000000230024002500260027002D0069
:1001B0002E00310035001C0018000C001200130046
:1001C0002F0030002A0000000B000D000E000F0071
:1001D0003300340028000000000011001000360039
:1001E00037003800E5000151000000002C002C0011
:1001F0000000E700E6000000000000000000010031
:100200003A003B003C003D003E00000000000000C2
:1002100001000100010001000100010000000000D8
:1002200000000100010001000100010001000000C8
:1002300000000000005C010001000100010001005D
:1002400000000000000001000100000001000000AB
:1002500000000000000000003F004000410042009C
:1002600043004400450049004C00010001004600E5
:1002700047004800520030002A0000000100010041
:100280004A004B0050004F00280000000000010011
:1002900001004D004E005100E5000151000000003A
:1002A00001000100000078000100000000000000D3
:1002B00000000403300000001003630068006F00BA
:1002C00063006F0036003000000018034E0061002C
:1002D0006F0074006F002000540061006B0061002B
:1002E000690000000403090409023B00020100A0A8
:1002F000FA090400000103010100092111010001B4
:100300002240000705810308000A090401000103D7
:100310000000000921110100012285000705820368
:1003200020000A1201100100000008C0C000600196
:10033000000102030105010902A10185020901A1D1
:10034000000509190129051500250195057501818B
:1003500002950175038101050109300931158125D7
:100360007F95027508810609381581257F950175ED
:10037000088106050C0A38021581257F950175084C
:100380008106C0C005010980A10185031601002670
:1003900003001A81002A8300751095018100C005B1
:1003A0000C0901A1018504160100269C021A010016
:1003B0002A9C02751095018100C005010906A10162
:1003C000050719E029E71500250195087501810247
:1003D0009501750881010508190129059505750123
:1003E00091029501750391010507190029FF150078
:1003F00026FF00950675088100C011241FBECFEFAF
:10040000DAE0DEBFCDBF04B603FE27C0809149020B
:1004100090914A02A0914B02B0914C028730904BD0
:10042000A740B04BD1F41092490210924A021092A8
:100430004B0210924C0214BE84B7877F84BF0FB664
:10044000F894A89580916000886180936000109274
:1004500060000FBEE0E0F8E3099511E0A0E0B1E034
:10046000E6EBF5E402C005900D92A233B107D9F78F
:1004700022E0A2E3B1E001C01D92A934B207E1F786
:100480000E94011D0C94D9220C940000CF93DF939D
:10049000FA016230710519F42230310529F08FEF2D
:1004A000818381E090E038C04A9B02C05A9A01C023
:1004B0005A98529A47E050E05C98EC01288130E06D
:1004C000042E02C0359527950A94E2F720FF02C05A
:1004D0005A9A01C05A985C9A4150510968F72AE12A
:1004E0002A95F1F700C052985A9A118287E090E05D
:1004F0005C985C9A29B122FBAA27A0F9B0E09D0183
:10050000082E01C0220F0A94EAF73181232B2183A0
:10051000019770F780E090E0DF91CF9108950F93FD
:10052000CF93DF9300D000D0CDB7DEB71B828FEF23
:100530008C8389838A83E0910001F09101010FEFA0
:1005400022E030E0AE014F5F5F4F62E070E0CE012D
:10055000039609958A810F900F900F900F90DF916D
:10056000CF910F910895549A52985A9A0895AF9244
:10057000BF92CF92DF92EF92FF920F931F93CF9390
:10058000DF9300D000D0CDB7DEB75C016B017A01FC
:1005900082E08B831FEF1C8319831A83E091000193
:1005A000F09101010FEF22E030E0AE014F5F5F4FAD
:1005B00062E070E0CE01039609958A81F50180839F
:1005C00083E08B831C8319831A83E0910001F091EF
:1005D000010122E030E0AE014F5F5F4F62E070E06A
:1005E000CE01039609958A81F601808384E08B838E
:1005F0001C8319831A83E0910001F091010122E02C
:1006000030E0AE014F5F5F4F62E070E0CE010396D5
:1006100009958A81F701808381E090E00F900F9027
:100620000F900F90DF91CF911F910F91FF90EF905E
:10063000DF90CF90BF90AF9008950C9425030C9459
:1006400027030C9475030C94B9030C94B302CF9355
:10065000DF9300D01F92CDB7DEB780913301909128
:1006600034019C012F5F3F4F3093340120933301BD
:1006700062E370E00E946922892B51F40E948F028C
:10068000803321F481E08093320102C01092320164
:1006900080913201882309F1AE014F5F5F4FBE01A7
:1006A0006E5F7F4FCE0103960E94B70210922D021B
:1006B0001092310210923002698160932E027A8189
:1006C000719570932F028B8187FF07C040912C0298
:1006D00050E080E090E00E9426090F900F900F906C
:1006E000DF91CF91089581E0089581E008951F93EF
:1006F000CF93DF9300D000D01F92CDB7DEB74983F0
:100700005A8320918B0189819A81211112C066231D
:1007100049F00E943016182F682F89819A810E9413
:10072000D51503C00E940416182F69817A81812F84
:1007300004C00E94301669817A810F900F900F904B
:100740000F900F90DF91CF911F910C94BF04FC018B
:10075000408151816281738184810C9477030E946E
:100760006017811102C00E94E6170C941D030C94BF
:100770001F0308950C94230308950E94FB100E9408
:10078000BC032FEF84E39CE0215080409040E1F7D0
:1007900000C0000087E797E7909301088093000866
:1007A0000C9408190F931F93CF93DF938C010E9431
:1007B000A703EC01B8010E942103882309F4D5C0E6
:1007C000B801CE010E94B209882309F4CEC0C53118
:1007D000FCE5DF0708F07BC0C2308CE5D80708F4E1
:1007E00052C0F8018281882309F454C00E94601726
:1007F000811102C00E94E6170E94731790E0909347
:100800003B0280933A02FE01E350FC45E231F105E0
:1008100030F4EA5AFF4F80913A020C947D22809185
:100820003A02816027C0826025C0846023C0806155
:1008300021C080621FC080641DC080681BC08460AE
:10084000886018C08E7F16C08D7F14C08B7F12C049
:100850008F7E10C08F7D0EC08F7B0CC08F770AC03B
:100860008B7F877F07C087FB222720F991E09227A3
:1008700090FB87F980933A0280913A020E947717A1
:100880000E94FB1072C0C115ECE5DE0751F0C130CB
:10089000DC4579F0C801DF91CF911F910F910C9445
:1008A0007303F8018281882309F45FC00E94BD03AD
:1008B0005CC0F8018281882309F457C08091150239
:1008C000982F909590FB80F9809315024EC0CC3DF7
:1008D0008CE5D80739F4F8018281882309F445C0F2
:1008E00080E00DC0CD3DECE5DE0760F0CD3D8CE550
:1008F000D80791F5F80182818823B9F182E00E943E
:10090000A01D33C0C631DC4529F60E94B016282F41
:10091000F801828140910B0150910C01882379F0FC
:100920002A7A91E009F490E090933501911102C088
:1009300069E201C065E3CA010E941A180AC08091E9
:100940003501811102C069E201C065E3CA010E945C
:100950001C180E94FC1609C0CE3DDC4509F09ACF58
:10096000F801828181110E94E61780E0DF91CF912A
:100970001F910F91089580E090E00895089599E007
:10098000799FF00111249AE5899FE00DF11D112452
:10099000E60FF11DEE0FFF1FE65BFE4F8591949170
:1009A0000895880F991FFC01EE54FD4F8591949195
:1009B0000895CF93DF930E94BF040E949006EC013C
:1009C000811520E59207F0F5811530E4930708F0D2
:1009D00024C1883E910500F5803E910508F09CC138
:1009E000883A910570F4853A910508F09FC08130EE
:1009F000910509F491C108F442C1049708F08CC133
:100A00003EC18F3B910508F49CC0803C910508F4E1
:100A100036C1805C9109F4C0811540E2940758F416
:100A2000C11581E0D80708F077C1C03FD10508F4AF
:100A300026C1D06571C1811520E3920708F0E4C09A
:100A40009F70DEC0811535E5930708F044C081151D
:100A500044E5940708F0F8C0C11582E5D80708F509
:100A6000C11521E5D20708F0DBC08C2F837021E08F
:100A700030E002C0220F331F8A95E2F73C68CE01B6
:100A800074E0969587957A95E1F78370382BCF704F
:100A9000C695C69580E2C89FE0011124C22BD32BD6
:100AA0003BC12C2F26952695CE0183709927C11521
:100AB000D34508F0BAC040E2249F90011124C1E060
:100AC000D0E002C0CC0FDD1F8A95E2F72C2B3D2B26
:100AD000E901DC6821C1811549E59407A0F4C1153D
:100AE00088E5D80708F0B5C0C11526E5D20708F09B
:100AF000C6C08C2F0E940D078F71C82FD0E0DC2F4D
:100B0000CC27D06209C181153AE5930708F4A6C045
:100B100090568115904208F0B2C08D2F8F710E94BF
:100B20000D07DD27D0628F71D82BF6C0853A91056D
:100B300009F4A8C0863A910509F0A7C0C2E8D0E43C
:100B4000EBC0883A910509F4A3C0893A910509F4EC
:100B5000A2C08A3A910509F4A1C08B3A910509F423
:100B6000A0C08C3A910509F49FC08B3B910509F414
:100B70009EC08C3B910509F49DC08D3A910509F406
:100B80009CC0803B910509F49BC08E3A910509F405
:100B90009AC08F3A910509F499C0813B910509F4F7
:100BA00098C0823B910509F497C0833B910509F4F5
:100BB00096C0843B910509F495C0853B910509F4E5
:100BC00094C0863B910509F493C0873B910509F4D5
:100BD00092C0883B910509F491C0893B910509F4C5
:100BE00090C08D3B910509F48FC08E3B910509F4AF
:100BF0008EC08A3B910509F48DC0C0E0D4E48CC05E
:100C00000E94D104EC0188C09927D3FF03C0EC01F6
:100C1000D86C82C0EC01D06C7FC0DF70D06A7CC021
:100C2000DC2FCC27C16FD06A77C040E2249F9001AF
:100C30001124C1E0D0E002C0CC0FDD1F8A95E2F79D
:100C4000C22BD32BDA6868C0D82FCC27C46FD06AE8
:100C500063C0DC2FCC27C06FD06A5EC08F700E944B
:100C60000D0794E0D695C7959A95E1F7CF70D0E03F
:100C7000DC2FCC27D06A8F70806EC82B4DC0C0E0AF
:100C8000D0E04AC0C1E8D0E447C0C3E8D0E444C0E3
:100C9000C2EED4E441C0C9EED4E43EC0CAEED4E40E
:100CA0003BC0C5EBD4E438C0C6EBD4E435C0C3EBDD
:100CB000D4E432C0C4EBD4E42FC0C7EBD4E42CC0DE
:100CC000CCECD4E429C0CDECD4E426C0C3E8D5E410
:100CD00023C0CAE8D5E420C0C2E9D5E41DC0C4E9F8
:100CE000D5E41AC0C1E2D6E417C0C3E2D6E414C00A
:100CF000C4E2D6E411C0C5E2D6E40EC0C6E2D6E432
:100D00000BC0C7E2D6E408C0CFE6D4E405C0C0E714
:100D1000D4E402C0CAE2D6E4CE01DF91CF910895B7
:100D20008238910549F1B0F48133910509F458C036
:100D300048F48932910509F44EC08A32910509F4CC
:100D400054C008958533910509F440C08933910555
:100D500099F00895833E910529F138F4803E91057C
:100D600091F0823E9105A1F00895863E9105F9F03B
:100D7000873E910531F1089520913A0220FD3AC055
:100D800021FD38C0089580913A0280FD35C032C0FF
:100D900080913A0282FF32C080913A0284FD30C0D5
:100DA00083EE39C080913A0282FD28C0F5CF809150
:100DB0003A0283FF27C080913A0284FD21C087EE6A
:100DC0002AC080913A0283FD1DC0F5CF80913A027E
:100DD00085FD1AC01BC080913A0285FD17C014C062
:100DE00080913A0286FD14C015C080913A0286FDBA
:100DF00011C00EC080EE0FC089E30DC082EE0BC0A3
:100E000080E009C086EE07C089E205C085E303C023
:100E10008AE201C081E390E0089590913A0292FF46
:100E20000DC0282F2871283019F4877F846006C0F0
:100E3000282F2471243011F48B7F886093FF0DC01C
:100E4000282F2871283119F4877E846106C0282F45
:100E50002471243111F48B7E886194FD877E08957E
:100E60000895E82FF0E0EE0FFF1FEF5BFE4F80814B
:100E70009181089508958091150283608860809320
:100E800015028091020180910201811102C095E05A
:100E900001C090E09093330285E0891B8093320279
:100EA000A7E2B1E041E050E025E02A0F8D91E82F64
:100EB000E295EF70F0E031A18F70BA0102C0660FC9
:100EC000771F8A95E2F7CB01962F9095932391A3F4
:100ED00092A1892B82A32A13E9CFAEE1B1E041E0D0
:100EE00050E029E02A0F8D91E82FE295EF70F0E0B5
:100EF00031A18F70BA0102C0660F771F8A95E2F7A1
:100F0000CB01962F9095932391A392A1892B82A335
:100F10002A13E9CFE1E4F1E01192119271E0E53595
:100F2000F707D1F785E00E9471080C94AF036F9228
:100F30007F928F929F92AF92BF92CF92DF92EF9269
:100F4000FF920F931F93CF93DF9367E271E0A7E3C4
:100F5000B1E0712C01E010E05D018D909C90119743
:100F600011961C921E92EB018991BE01E82FE29529
:100F7000EF70F0E091A18F70A80101C0440F8A9535
:100F8000EAF7892F842B81A382A1642E60948621A5
:100F900082A3D0EADA95F1F79EE1E92E91E0F92EED
:100FA00080E090E0E701D9907E012D2D22952F70F1
:100FB00030E0E90128A130E0DD2DDF7002C0359579
:100FC0002795DA95E2F720FD08C09801082E02C0A7
:100FD000220F331F0A94E2F702C020E030E0CD90E8
:100FE000DC9011972C293D2911963C932E93019664
:100FF00089309105B9F681A1D62DD823D1A382A13C
:10100000482B42A3129681E0F5012081318182169E
:10101000930609F480E0782AF1E0A134BF0709F0D3
:101020009BCF6091330270E0660F771F6F5B7E4F3E
:10103000272D45E087E391E00E947208872DDF911C
:10104000CF911F910F91FF90EF90DF90CF90BF90C5
:10105000AF909F908F907F906F900895CF930E9454
:101060009707C82F0E94B008882361F120913202AF
:1010700030E0C901880F991F8F5B9E4F0E94E408E2
:1010800081111BC0809136018F5F809336018630BD
:10109000B0F02091320230E0220F331F40E050E0E8
:1010A000FA01E20FF31FEF5BFE4F118210824E5FD9
:1010B0005F4F4A305105A1F702C0109236010E94DD
:1010C000B7030CC02091330230E0C901880F991F8B
:1010D0008F5B9E4F0E9405090E9430078C2FCF9195
:1010E00008950895FF920F931F93CF93DF93F82EE7
:1010F000092F162FD72FC42F222349F081E0809388
:1011000057010E94AC18909356018093550180912D
:1011100057018823D9F080915501909156010E9482
:10112000B818069798F0EF2DF02FA12FBD2F80E073
:1011300090E04C2F50E08417950734F421913191C1
:101140002D933D930196F7CF10925701DF91CF91E8
:101150001F910F91FF900895509889B18170089563
:1011600080915801811112C08091D80080618093D4
:10117000D8008AE18A95F1F700C08091D90080FDFE
:1011800002C082E001C081E08093580181E090912B
:101190005801913009F080E008950E94AC088093D6
:1011A00002010E94B00881110C94D8080C94DE084A
:1011B00061E070E083E091E00C94530A61E070E03C
:1011C00083E091E00C945C0ACF93DF93D82FC92F72
:1011D00080E090E00E943E0B892B99F4ED2FFC2FCC
:1011E00080E090E0DC01AA0FBB1FA65ABE4F2D91F4
:1011F0003C912193319301968530910599F781E0D7
:1012000001C080E0DF91CF91089520E030E0FC0143
:1012100041915191CF01F901EE0FFF1FE65AFE4FA8
:10122000518340832F5F3F4F2530310581F708956B
:10123000089584E691E00E94DD0BE4E6F1E012827D
:1012400013821482158208950C941909CF93DF93A9
:1012500000D000D000D0CDB7DEB749835A836B836E
:101260007C838D839E8386E0FE013196A4E6B1E007
:1012700001900D928A95E1F726960FB6F894DEBF9D
:101280000FBECDBFDF91CF9108950F931F93CF93E2
:10129000DF93C62FD42F022FFC0182818823C9F04F
:1012A00060936C010E94AC1890936B0180936A016B
:1012B00080E28C0F883008F050C0C77081E001C018
:1012C000880FCA95EAF7DF91CF911F910F910C9487
:1012D000390E10916C01161330C080916A01909103
:1012E0006B010E94B818883C910538F5C0E2CD0F1B
:1012F0001D17B9F080E2810F883040F4177081E04B
:1013000001C0880F1A95EAF70E94400EC83048F4D1
:1013100081E09D2F977001C0880F9A95EAF70E948F
:10132000390E802F0E94260EC830B8F4D77081E0A5
:1013300001C0880FDA95EAF70AC080E28C0F883086
:1013400060F4C77081E001C0880FCA95EAF7DF91A9
:10135000CF911F910F910C94400EDF91CF911F916F
:101360000F9108959C01CB01203F4CE53407F9F023
:1013700078F4283DFCE53F07B9F0293D4CE53407FA
:1013800011F1273D3C4531F526E241EE61EE1EC0EC
:10139000223FFCE53F0799F070F0233F3C45D1F434
:1013A00027E245EE66EE12C027E245EE0EC026E2C9
:1013B00041EE60EE0BC027E245EE64EE07C026E288
:1013C00041EE62EE03C028E241E065EE0E9445096D
:1013D00080E00895FC018281882319F010926C014D
:1013E000089581E008958EE14B9B02C08150E1F7A2
:1013F0004B9BFECF08955B9880E28A95F1F75B9A4C
:101400000895FC014AE04A95F1F730E090E080E071
:1014100021E0961779F040E14A95F1F7880F4B9B50
:1014200002C08160322700C0000040E14A95F1F718
:101430009F5FEFCF90E19A95F1F729B100C00000CE
:1014400040E14A95F1F723FB992790F993272081F2
:10145000920F90830895EF92FF920F931F93CF9373
:10146000DF931F92CDB7DEB7F62E1982E82E8C01DE
:10147000802F8E198F1558F40E94F30968E0CE0171
:1014800001960E94010AF80181938F01F1CF81E05A
:101490009981911180E00F90DF91CF911F910F9171
:1014A000FF90EF90089590936F0180936E01609389
:1014B0006D01539A5B9A089590936F0180936E012A
:1014C00060936D0153985B9AEB9AE9E6F0E08081B6
:1014D0008F7380830895615091E001C0990F6A95E0
:1014E000EAF720E031E0992361F0492F482319F011
:1014F0005B9A232701C05B9840E24A95F1F79695E5
:10150000F2CF222311F05B9A01C05B9880E28A95AA
:10151000F1F75B980895EF92FF920F931F93CF938B
:10152000DF931F92CDB7DEB7162F082F7C018E2DCB
:10153000801B811758F4F70181917F0189830E94F4
:10154000FB0968E089810E946B0AF1CF0F90DF915F
:10155000CF911F910F91FF90EF9008951F920F92DE
:101560000FB60F9211240F931F932F933F934F9316
:101570005F936F937F938F939F93AF93BF93EF93FB
:10158000FF93CF93DF931F92CDB7DEB719820E94EE
:10159000F30967E0CE0101960E94010A382F3695C3
:1015A00036953695932F96959570232F2570920F2B
:1015B000292F2370969596958770920F891348C0AE
:1015C0008981811145C080916D01831708F440C065
:1015D00080E18A95F1F75B9A539AA2E0AA95F1F718
:1015E00000C000916E0110916F01B8E03B9F000DAB
:1015F000111D11245B98F8016581662321F0868115
:1016000097810E948B0A0E94FB09F0E1FA95F1F79D
:101610005B9853985B9A80E18A95F1F7D80112960E
:101620006C911297662369F013968D919C91149793
:101630000E942B0AD801ED91FC91811105C082E036
:1016400004C0D801ED91FC9188E080830E94F309E9
:101650000F90DF91CF91FF91EF91BF91AF919F914B
:101660008F917F916F915F914F913F912F911F913A
:101670000F910F900FBE0F901F9018950F931F930F
:10168000CF93DF9320916D0130E0281739070CF4D8
:1016900071C09C0193E0220F331F9A95E1F7C0912E
:1016A0006E01D0916F01C20FD31FF894539A5B98CB
:1016B00045E04A95F1F70000982F96959570857052
:1016C000890F982F937086958695890F8901082B2D
:1016D0000E94FB0984E08A95F1F700C067E0802F43
:1016E0000E946B0A40E14A95F1F753985B9A4B9937
:1016F00002C000C0FCCF87E090E04B9B0EC001977A
:1017000051F4539A5B9AE881F98181E0808378945F
:1017100081E090E031C000C0F0CF6D81662381F0A0
:101720008E819F810E942B0A81110AC0539A5B9A75
:10173000E881F98182E08083789482E090E01CC0A7
:101740000E94F30980E28A95F1F75B98539A40E191
:101750004A95F1F76A81662321F08B819C810E9472
:101760008B0A0E94FB09E881F9811082789480E05D
:1017700090E002C084E090E0DF91CF911F910F9143
:10178000089590937501809374010895E091740118
:10179000F0917501309721F00190F081E02D0994CE
:1017A00080E00895E0917401F0917501309721F087
:1017B0000280F381E02D09940895E0917401F09185
:1017C0007501309739F022E0DC012C930480F5811B
:1017D000E02D0994089520917201309173018217D0
:1017E000930771F09093730180937201E0917401FB
:1017F000F0917501309721F00680F781E02D099472
:10180000089520917001309171018217930771F052
:101810009093710180937001E0917401F0917501D2
:10182000309721F00084F185E02D0994089585B763
:10183000806885BF85B7806885BF089508950C943A
:101840001E0C08950C94210C0E94170C0E94CD08C8
:101850000C941F0C0E94A3180E943B070E941919A8
:101860000E9418090C94220C4F925F927F928F92E3
:101870009F92AF92BF92CF92DF92EF92FF920F931F
:101880001F93CF93DF93CDB7DEB72A970FB6F894A7
:10189000DEBF0FBECDBF0E942E080E94B00881118E
:1018A00011C08FEF89838A831B820E94AC188160EC
:1018B000782F9D838C8349815A816B818D810E9411
:1018C000F40C57C097E7C92E91E0D92E00E010E044
:1018D000AA24A394B12C702E802F0E9431074C01B2
:1018E000F601419051906F01482659264114510448
:1018F00031F40F5F1F4F0A30110569F7D2CF809185
:10190000150281FD0E943A0720E030E07501022EA9
:1019100002C0EE0CFF1C0A94E2F7C7018421952156
:10192000892B09F12E837F828E209F2091E08928C8
:1019300009F490E098870E94AC188160782F9A870C
:1019400089874E815F8168858A850E94F40C000F2B
:10195000111FF801E958FE4F80819181E826F92690
:10196000F182E08206C02F5F3F4F2930310571F6CA
:10197000C0CF0E94AC1A0E942409109176010E94E7
:10198000C60B1817D9F00E94C60B809376012A96D1
:101990000FB6F894DEBF0FBECDBFDF91CF911F9180
:1019A0000F91FF90EF90DF90CF90BF90AF909F90FE
:1019B0008F907F905F904F900C94BA032A960FB649
:1019C000F894DEBF0FBECDBFDF91CF911F910F9175
:1019D000FF90EF90DF90CF90BF90AF909F908F904F
:1019E0007F905F904F900895CF93DF93CDB7DEB790
:1019F0002B970FB6F894DEBF0FBECDBF4F8358872D
:101A000069877A878B87DE01119686E0FD01119246
:101A10008A95E9F785E0FE01379601900D928A9547
:101A2000E1F749815A816B817C818D819E810E9481
:101A3000A5132B960FB6F894DEBF0FBECDBFDF9176
:101A4000CF910895FC01808191810E9471160895C3
:101A5000882309F4C6C09CEF980F913A40F4682F90
:101A600080910B0190910C010E941A180DC090E218
:101A7000980F983058F4877091E001C0990F8A95BB
:101A8000EAF7892F0E94B3160C94FC169BE5980F79
:101A9000933070F4853A29F0863A31F083E890E08B
:101AA00005C081E890E002C082E890E00C94EB0B66
:101AB00098E5980F973108F08EC0883A09F445C030
:101AC000893A09F445C08A3A09F445C08B3A09F4C9
:101AD00045C08C3A09F445C08B3B09F445C08C3BAA
:101AE00009F445C08D3A09F445C0803B09F445C06E
:101AF0008E3A09F445C08F3A09F445C0813B09F498
:101B000045C0823B09F445C0833B09F445C0843B92
:101B100009F445C0853B09F445C0863B09F445C03E
:101B2000873B09F445C0883B09F445C0893B09F46B
:101B300045C08D3B09F445C08E3B09F445C08A3B46
:101B400009F445C080E090E044C082EE90E041C0DE
:101B500089EE90E03EC08AEE90E03BC085EB90E0DD
:101B600038C086EB90E035C083EB90E032C084EB68
:101B700090E02FC087EB90E02CC08CEC90E029C067
:101B80008DEC90E026C083E891E023C08AE891E0E4
:101B900020C082E991E01DC084E991E01AC081E291
:101BA00092E017C083E292E014C084E292E011C098
:101BB00085E292E00EC086E292E00BC087E292E0FE
:101BC00008C08FE690E005C080E790E002C08AE29E
:101BD00092E00C94010C803F20F00E94B4190C9408
:101BE000A11A0895882389F19CEF980F913A40F447
:101BF000682F80910B0190910C010E941C180DC060
:101C000090E2980F983058F4877091E001C0990FD6
:101C10008A95EAF7892F0E94B9160C94FC169BE569
:101C2000980F933020F480E090E00C94EB0B98E553
:101C3000980F973120F480E090E00C94010C803FE5
:101C400020F00E941C1A0C94A11A0895CF93C82F5B
:101C50000E94280DC93349F42FEF87EE93E02150FD
:101C600080409040E1F700C000008C2FCF910C9491
:101C7000F20D882321F00E94B3160C94FC160895EF
:101C8000882321F00E94B9160C94FC1608954F92F7
:101C90005F926F927F92BF92CF92DF92EF92FF920C
:101CA0000F931F93CF93DF937C01062FC72FFC0167
:101CB000158112951F70D281D1110E94D0160E94F9
:101CC000A916882379F0DD2369F080E2800F88303F
:101CD00048F082E00E9447170E94A91691E0B82EB2
:101CE000B92601C0B12CCC2EC2948FE0C822D12CD1
:101CF000F601E859FF4F0C947D228C2F807FCF7026
:101D0000882311F0C295C07FDD2399F0CC2309F41C
:101D1000CEC180E2800F883010F0011104C08C2FFA
:101D20000E94B31603C08C2F0E94C3160E94FC169B
:101D3000BEC1802F0E94F20DCC2309F4DDC180E2E8
:101D4000800F883010F0011104C08C2F0E94B9164A
:101D500003C08C2F0E94C9160E94FC16CDC18C2F87
:101D6000807FCF70803211F0C295C07F002319F0C0
:101D70000130C9F022C0DD2371F0112341F0113090
:101D800031F40E94E3168C2B0E94E916B5C10E9423
:101D9000E3168C2B45C1112319F0113009F4ACC1A5
:101DA0000E94F21623C0DD2321F0163008F0A4C1F2
:101DB0000EC0153008F0A0C119C0DD2351F0112369
:101DC00031F0F701858180FF72C18F7085838C2F80
:101DD00027C1112359F0093309F07AC1FFEF27EE2B
:101DE00083E0F15020408040E1F770C18C2F1EC18C
:101DF0008C2F86958695837090E0009719F0019757
:101E000061F07AC1DD2321F0802F9C2F937002C0F6
:101E100080E090E00E94EB0B7FC1DD2321F0802F5A
:101E20009C2F937002C080E090E00E94010C74C16E
:101E3000DD23F9F0053F51F0063F71F0043FA9F4AE
:101E4000809134029091350281600BC08091340200
:101E500090913502826005C08091340290913502E4
:101E600084609093350280933402802F0E94B419CD
:101E70001EC0053F51F0063F71F0043FA9F4809168
:101E80003402909135028E7F0BC080913402909184
:101E900035028D7F05C080913402909135028B7F91
:101EA0009093350280933402802F0E941C1A0E9466
:101EB000A11A32C18C2F837009F04BC0D11128C1F7
:101EC000202F229526952770220F220F602F6F70EA
:101ED000862F90E0A0E0B0E02C013D01022E04C06E
:101EE000440C551C661C771C0A94D2F704FF10C0E2
:101EF0008FE090E0A0E0B0E004C0880F991FAA1F17
:101F0000BB1F2A95D2F780959095A095B09503C0F8
:101F100080E090E0DC01C695C695C370D0E0BC01BE
:101F2000CD016429752986299729C230D10559F038
:101F3000C330D10559F0219719F00E94EA14E8C086
:101F40000E94D814E5C00E94FC14E2C00E94D6147E
:101F5000DFC0DD2319F08C2F817001C086958823A6
:101F600009F4D6C0202F229526952770220F220F24
:101F7000602F6F70862F90E0A0E0B0E02C013D0153
:101F8000022E04C0440C551C661C771C0A94D2F720
:101F900004FF10C08FE090E0A0E0B0E004C0880F24
:101FA000991FAA1FBB1F2A95D2F780959095A095DF
:101FB000B09503C080E090E0DC01C695C695C37083
:101FC000D0E0BC01CD016429752986299729C2304A
:101FD000D10559F0C330D10559F0219719F00E946D
:101FE000B01596C00E949E1593C00E94C21590C065
:101FF0000E9411158DC0802F90E0FC01E05EF10978
:10200000E531F10508F04FC0E858FF4F0C947D22F0
:102010000F708C2F8F71DD2331F00E943715802FC8
:102020000E94390E69C00E945815802F0E94400EF0
:1020300063C0DD2341F0153008F05EC08C2F8F7136
:102040000E947D1559C0163008F056C0F7CFDD2329
:1020500039F08C2F8F710E9437154EC0DD23C9F3E4
:102060008C2F8F710E94581547C0DD2329F08C2FCB
:102070008F710E94221540C00E941D153DC0DD23B6
:1020800049F0CF718C2F0E94371563E08C2F0E948E
:10209000321732C081E00E944717123068F182E0A7
:1020A0000E94471729C0DD2331F0112391F2802FC0
:1020B0000E94280D21C0112399F2093349F49FEFA2
:1020C000E7EEF3E09150E040F040E1F700C000009F
:1020D000802F0E94F20D10C04C2F4F70602FC7014F
:1020E0000E94BB040E94491417C04C2F4F70602FF0
:1020F000C7010E94BE0410C028E0C216D10441F0FE
:102100005CF09AE0C91AD108E2E0CE16D10420F4BE
:102110000E94C60B0E94BA03BB20F1F00E94A516D4
:1021200080FD1AC0F70112820E949F160E94371587
:10213000C7010E94BA100E949F16DF91CF911F9194
:102140000F91FF90EF90DF90CF90BF907F906F90B6
:102150005F904F900C945815DF91CF911F910F9184
:10216000FF90EF90DF90CF90BF907F906F905F9047
:102170004F9008950F931F93CF93DF93EC018881C5
:1021800099812B813C81232BB9F09F3F11F48F3F24
:1021900099F0CE010E94D203882371F06881798181
:1021A0008A810E947C168C010E94D4150E94D5144D
:1021B000B801CE010E94470EDF91CF911F910F9180
:1021C00008950E94D0160E94E0160E94FC160E94FC
:1021D000471B0E94A11A80E090E00E94EB0B80E078
:1021E00090E00C94010C80910B0190910C010E94E5
:1021F0001E180C94E1100E94C0160C94F310E92FE5
:10220000E295EF70F0E03297EE30F105B0F4E3576D
:10221000FF4F0C947D22803F91F018F4803E68F4CB
:102220000EC0843F51F40BC0803E48F0813F29F43A
:1022300006C093FB882780F9089580E0089581E027
:1022400008950E9471160E94FF100895CF93DF93A6
:1022500000D000D01F92CDB7DEB70F900F900F9037
:102260000F900F90DF91CF910895CF93DF9300D01F
:1022700000D000D0CDB7DEB726960FB6F894DEBFFB
:102280000FBECDBFDF91CF9108951F93CF93DF9302
:10229000C0918C0116E080918D01C81799F0D0E0B3
:1022A0001C9FF0011D9FF00D1124E257FE4F40814D
:1022B000518162817381848195810E9435112196BB
:1022C000C770E9CFDF91CF911F9108954091BE0172
:1022D0005091BF016091C0017091C1018091C20114
:1022E0009091C3010C9435118091C30182958F7038
:1022F00009F054C08091C001882309F44FC0809137
:102300008C01A0918D016091BE017091BF0140913F
:10231000C1015091C201B6E08A1709F43FC090E0B4
:1023200041155105C1F17F3F11F46F3FA1F1B89FF5
:10233000F001B99FF00D1124E257FE4F2181721375
:102340002AC02081621327C02281211124C0238149
:1023500034812417350710F421503109241B350B23
:10236000283C3105C0F42091C3012F7020612093D7
:10237000C30126E0289FF001299FF00D1124ED569E
:10238000FE4F80818F70806180838EEB91E00E9490
:10239000BA100C94451101968770BECF0895CF9264
:1023A000DF92EF92FF920F931F93CF93DF93CDB7FE
:1023B000DEB762970FB6F894DEBF0FBECDBF8C01BB
:1023C00085E0F801DE011D9601900D928A95E1F7F6
:1023D000D8014C9111965C91119712966C911297BD
:1023E0001396CD90DC9014973091BE017091BF018F
:1023F0008091C1019091C201009709F46BC17F3FA8
:1024000019F43F3F09F466C1E090C001EE2009F4E1
:10241000C0C02091C301C816D90628F0F601E81BF8
:10242000F90BCF0104C0809590958C0D9D1DFF2464
:10243000F394883C910578F0F12C207F09F0C6C018
:102440007C2DD98AC88A89890E9426118EEB91E059
:102450000E94BA10B1C0822F807F09F046C0751368
:1024600014C0341312C0611110C02F70206120936A
:10247000C3010E9466118EEB91E00E94BA10809118
:10248000C301D80115968C932EC0CD2819F15F3F5A
:1024900011F44F3FF9F0F62E61111CC080918C01B0
:1024A00020918D0136E0821709F45AC090E0389FE0
:1024B000F001399FF00D1124E257FE4F718157133F
:1024C00006C07081471303C07281711103C0019669
:1024D0008770E9CFF62E662309F427C18091C301E6
:1024E00081608093C301F12C20C1751308C034139F
:1024F00006C0611104C08091C301D801C3C04D87DB
:102500005E878D859E856A8B0E9421116A8988234A
:10251000E1F16623D1F12091C301822F82958F7062
:1025200090E0029774F08091BE019091BF0198876E
:102530008F831986DB86CA862C87CE0107960E9478
:10254000BA1086E0F801AEEBB1E001900D928A95E9
:10255000E1F70E9474110E946611FF24F394E5C014
:102560004D875E878D859E850E947116292F229545
:102570002F7030E0223031050CF0CBC09F7009F095
:10258000C5C0805E883008F4D0C0C8010E94BA106F
:10259000E4CFC816D90608F453C0F601E81BF90BBE
:1025A000CF01883C910508F450C0F12C7C2DD98ACC
:1025B000C88A89890E942611EEEBF1E086E0DF01EE
:1025C0001D928A95E9F70E946611AFC0751314C079
:1025D000341312C0611110C08091C301F8018583CA
:1025E000C8010E94BA1086E0EEEBF1E0DF011D9217
:1025F0008A95E9F7FE2C99C04D875E878D859E856B
:102600006A8B0E9421116A89882309F4BECF662350
:1026100009F4BBCF2091C301822F82958F7090E087
:1026200002970CF48ECF8091BE019091BF019A83E6
:1026300089831B82DD82CC822E83CE0101967FCFDF
:10264000809590958C0D9D1DACCFF62E662309F4D8
:102650009CCF75132EC034132CC02091C30120FDD4
:102660001FC0822F82958F70D9F0D80115962C93B8
:1026700015978F3049F08F5F982F9295907F822F1A
:102680008F70892B15968C93C8010E94BA1086E032
:10269000F801AEEBB1E001900D928A95E1F793CF8E
:1026A00086E0F801AEEBB1E001900D928A95E1F77A
:1026B0003CC04D875E878D859E850E9421118111CA
:1026C00040CF8091C30181608093C301C8010E9403
:1026D000BA102BC0662309F458CF4D875E878D85CD
:1026E0009E850E942111F82E882309F44ECF86E0A2
:1026F000F801AEEBB1E001900D928A95E1F78EEB17
:1027000091E00E94220D0E9474115DCF811139CF9A
:102710000CC0243031050CF038CF9F7009F431CF54
:10272000F8019581907F09F02CCF8F2D62960FB61E
:10273000F894DEBF0FBECDBFDF91CF911F910F91F7
:10274000FF90EF90DF90CF9008951F93CF93DF938A
:10275000CDB7DEB72C970FB6F894DEBF0FBECDBF56
:102760004F83588769877A878B879C87CE01079626
:102770000E94CF11882369F08F8198852A853B8537
:10278000232BF1F19F3F09F063C08F3F09F060C038
:1027900037C086E0FE013796DE01119601900D925A
:1027A0008A95E1F76F817885EA85FB85309741F15D
:1027B0007F3F11F46F3F21F120918D0130E0C9017D
:1027C00001968770992740918C0150E084179507F6
:1027D00009F447C069837A83FD83EC8396E0929F76
:1027E000D001939FB00D1124A257BE4FFE01319628
:1027F00001900D929A95E1F780938D010E94451109
:1028000016E080918C0190918D018917C1F1189F7C
:10281000C001112482579E4F0E94CF11882379F165
:10282000E0918C011E9FF0011124E257FE4F408180
:10283000518162817381848195810E9435118091DB
:102840008C0190E001968770992780938C01D9CFF5
:102850004F81588569857A858B859C850E943511C5
:10286000CFCF0E94FB1010928D0110928C01EEEBE5
:10287000F1E086E0DF011D928A95E9F7C1CF2C9641
:102880000FB6F894DEBF0FBECDBFDF91CF911F9181
:102890000895EF92FF920F931F93CF93DF938C01D4
:1028A000892B09F46CC0F12CEE24E394E801219605
:1028B000F8018491843740F4843008F051C08130AD
:1028C00081F0823019F15BC0853709F444C0A8F16A
:1028D0009CE7980F903708F052C08F770E94F20D56
:1028E00041C00E5F1F4FFE01C49180E28C0F883003
:1028F00048F4C7708E2D01C0880FCA95EAF70E9470
:10290000D31614C08C2F0E94280D2DC00E5F1F4FB0
:10291000FE01C49180E28C0F883058F4C7708E2D70
:1029200001C0880FCA95EAF70E94D9160E94FC16CA
:102930001AC08C2F0E94F20D16C00E5F1F4FFE01B1
:10294000C491CC2381F08FE99FE00197F1F700C09B
:102950000000C150F6CF0E5F1F4FFE01F49003C080
:102960000E94280D8E018F2D882309F49FCFEFE957
:10297000FFE03197F1F700C000008150F5CFDF9103
:10298000CF911F910F91FF90EF90089508950C94AF
:10299000C6140E94C71460930402709305028093CA
:1029A0000602909307020C94E11008950C94C91448
:1029B0000F931F93009104021091050220910602CB
:1029C00030910702602B712B822B932B1F910F915B
:1029D0000C94C9140F931F930091040210910502E7
:1029E00020910602309107026023712382239323F2
:1029F0001F910F910C94C9140F931F93009104021F
:102A0000109105022091060230910702602771277C
:102A1000822793271F910F910C94C91408950C9449
:102A20000E150E940F1560930002709301028093AF
:102A30000202909303020C94E11060E070E0CB017D
:102A40000C9411150F931F9341E050E060E070E08B
:102A50008A019B0104C0000F111F221F331F8A959A
:102A6000D2F7C901B8011F910F910C9411150F9362
:102A70001F9341E050E060E070E004C0440F551F38
:102A8000661F771F8A95D2F780910002909101020C
:102A9000A0910202B09103028A019B01082B192B1D
:102AA0002A2B3B2BC901B8011F910F910C941115D2
:102AB0000F931F9341E050E060E070E004C0440FCA
:102AC000551F661F771F8A95D2F7409550956095E0
:102AD00070958091000290910102A0910202B09144
:102AE00003028A019B01082319232A233B23C901DE
:102AF000B8011F910F910C9411150F931F9341E092
:102B000050E060E070E004C0440F551F661F771F5F
:102B10008A95D2F78091000290910102A091020261
:102B2000B09103028A019B01082719272A273B2716
:102B3000C901B8011F910F910C9411150F931F93A8
:102B400000910002109101022091020230910302D3
:102B5000602B712B822B932B1F910F910C941115CD
:102B60000F931F9300910002109101022091020225
:102B70003091030260237123822393231F910F91CD
:102B80000C9411150F931F930091000210910102F4
:102B90002091020230910302602771278227932738
:102BA0001F910F910C941115089529E0929F800DAB
:102BB0001124A82FA695A695A695877051E001C06F
:102BC000550F8A95EAF785E0A89FD001112420E0EF
:102BD00030E070E0F901EA0FFB1FEC53FE4F40813B
:102BE000CB01022E02C0969587950A94E2F7817078
:102BF0009927819584278523842780832F5F3F4FE2
:102C00002530310539F7089529E0929F800D112470
:102C1000682F669566956695982F977085E0689FF2
:102C2000B001112440E050E080E0FA01E60FF71F08
:102C3000EC53FE4F208130E0092E02C036952795D7
:102C40000A94E2F721703327042E01C0220F0A9460
:102C5000EAF7822B4F5F5F4F4530510531F70895FA
:102C6000BF92CF92DF92EF92FF920F931F93CF9379
:102C7000DF938C01C0900402D0900502E090060220
:102C8000F09007028091000290910102A09102024F
:102C9000B0910302C82AD92AEA2AFB2ACFE1D0E060
:102CA000D701C6010C2E04C0B695A79597958795B8
:102CB0000A94D2F780FF07C0BC2EB8018C2F0E9467
:102CC000D904019719F4219758F7B12C8B2DDF9176
:102CD000CF911F910F91FF90EF90DF90CF90BF9019
:102CE0000895CF93DF93EC010E943016BE010E943D
:102CF000D904DF91CF9108951F93CF93DF93EB0118
:102D000090918B01992321F0CB010E94711613C081
:102D1000882349F0CB010E943016182F682FCE016E
:102D20000E94D51504C0CB010E940416182FBE01C5
:102D3000812F0E94D904DF91CF911F910895809136
:102D4000080285958595859508958091080287707C
:102D5000089590910802977081E009F480E0089549
:102D600080911402089590911402892B809314028B
:102D700008958095909114028923809314020895F8
:102D800010921402089590911302892B80931302DC
:102D900008958095909113028923809313020895DA
:102DA00010921302089590911202892B80931202BF
:102DB00008958095909112028923809312020895BC
:102DC00010921202089580910902089508950C94BA
:102DD000E61690910902981721F0809309020C944D
:102DE000E716089580910902882329F010920902BC
:102DF00080E00C94E7160895E0910B01F0910C012E
:102E0000809114028083E0910B01F0910C0190817C
:102E100080911302892B8083E0910B01F0910C01CA
:102E2000908180911202892B8083809109028823EE
:102E300081F0E0910B01F0910C019081892B80834E
:102E400080910B0190910C010E94E81781110E9462
:102E5000F21680910B0190910C010C94D20B089505
:102E60000C942F1798E0899F90011124262B209312
:102E700008020E94371580910802859585958595F1
:102E80000C9430171092080280E00C9430172091B7
:102E900008028095822380930802982F977079F416
:102EA00030E0482F082E000C550B2417350739F059
:102EB0008595859585950E9458150C94421708951F
:102EC00080E090E00E949F2221E08D3E9E4F09F01D
:102ED00020E0822F089582E090E00C94972283E016
:102EE00090E00C94972284E090E00C949722682F55
:102EF00084E090E00C94A522AB01BC018FE090E04F
:102F00000C94B722AB01BC0183E190E00C94B72292
:102F100060E070E0CB010C94821760E070E0CB01C0
:102F20000E947C170C9488176DEE7EEF80E090E095
:102F30000E94C32260E082E090E00E94A52260E04F
:102F400083E090E00E94A5221092040210920502F4
:102F5000109206021092070260E084E090E00E9466
:102F6000A52260E085E090E00E94A52260E086E076
:102F700090E00E94A5226FEF87E090E00E94A522DA
:102F800040E050E0BA0188E090E00E94B72260E0A3
:102F90008DE090E00E94A52240E050E0BA0188E177
:102FA00090E00E94B72260E087E190E00E94A522B5
:102FB00040E050E0BA018CE190E00E94B72260E06E
:102FC00080E290E00E94A5220C948D170C94941737
:102FD000FC01329697E080E0915029F02191222364
:102FE000D9F38F5FF9CF08959C01FC0132969FEFD2
:102FF00080E04191461789F09F3F19F4411101C0CB
:10300000982F8F5F8630A9F79F3F39F0F901E90FBC
:10301000F11D97FDFA95628308950895FC0132969B
:1030200008962081261301C010823196E817F9070F
:10303000C1F708950C94F4170C940E18029626E02C
:10304000FC0111922A95E9F7089508950C9425182A
:103050000E94261880914002843049F11092160295
:1030600020E488E190E00FB6F894A8958093600082
:103070000FBE2093600080E00E94BA030E942618D1
:1030800083B7817F846083BF83B7816083BF789477
:10309000889583B78E7F83BF0FB6F894A8958091EB
:1030A0006000886180936000109260000FBE0895F8
:1030B00008950895CF930E9458180E942E080E94E8
:1030C0005918C0E08C2F0E943107892B29F4CF5F5B
:1030D000CA30C1F780E001C081E0CF910895089522
:1030E0000C946F180E94FB100E94C60B0E94BA033A
:1030F0000C9470181F920F920FB60F9211248F9399
:103100009F93AF93BF9380911602811113C080915A
:10311000360290913702A0913802B091390241965F
:10312000A11DB11D8093360290933702A0933802FF
:10313000B0933902BF91AF919F918F910F900FBEC5
:103140000F901F90189582E084BD93E095BD9AEF93
:1031500097BD80936E0008952FB7F8948091360242
:1031600090913702A0913802B09139022FBF089593
:10317000CF92DF92EF92FF920F931F932FB7F894A5
:1031800040913602509137026091380270913902B5
:103190002FBF6A017B01EE24FF248C0120E030E088
:1031A000C016D106E206F30610F4415051099A0107
:1031B000281B390BC9011F910F91FF90EF90DF90F1
:1031C000CF90089578941F920F920FB60F9211240A
:1031D0008F939F93AF93BF93809136029091370264
:1031E000A0913802B09139020196A11DB11D8093C2
:1031F000360290933702A0933802B0933902BF9100
:10320000AF919F918F910F900FBE0F901F901895C7
:1032100087E797E790930108809300089AE088E198
:103220000FB6F894A895809360000FBE909360004D
:10323000FFCF0E946017811102C00E94E6170E9412
:103240006B17809315020E94731790E090933B02D6
:1032500080933A020E946F17682F70E080E090E040
:103260000C94D61480911A0280FF0BC0609110015B
:1032700085E0689FB00111247595679575956795F0
:103280002BC081FF09C06091100185E0689FB001EB
:1032900011247595679520C082FF07C060911001C9
:1032A00085E0689FB001112417C0909119029923FD
:1032B000D1F060910F01961788F72091100185E0F9
:1032C000289F90011124929FA001939F500D1124DB
:1032D00070E0CA010E9469226038710540F46115EE
:1032E000710539F002C065E070E0862F08958FE720
:1032F000089581E0089580911A0280FF08C06091CE
:103300000E0170E0759567957595679521C081FFF1
:1033100006C060910E0170E07595679519C082FF37
:1033200004C060910E0170E010C0909119029923C1
:10333000C1F060910D019617A0F780910E01899F51
:10334000C001112470E00E9469226038710528F4E0
:103350006115710521F0862F08958FE7089581E0AA
:10336000089561E070E0F4CF803F21F40E943219AB
:10337000819504C0813F29F40E94321980931E0276
:103380000895823F21F40E943219819504C0833F41
:1033900029F40E94321980931D020895893F19F47F
:1033A0000E947B1905C08A3F31F40E947B198195E8
:1033B00080931F0208958B3F21F40E947B19819511
:1033C00004C08C3F29F40E947B1980932002089549
:1033D000843F21F480911C02816017C0853F21F455
:1033E00080911C02826011C0863F21F480911C02F2
:1033F00084600BC0873F21F480911C02886005C067
:10340000883F31F480911C02806180931C020895F2
:103410008D3F21F480911A0281600BC08E3F21F410
:1034200080911A02826005C08F3F29F480911A02B0
:10343000846080931A020895803F39F480911E02BF
:1034400087FF6CC010921E0269C0813F29F48091F1
:103450001E021816BCF362C090911D02823F29F42F
:1034600097FF5CC010921D0259C0833F19F41916D2
:10347000CCF354C0893F41F480911F0218160CF020
:103480004DC010921F024AC08A3F29F480911F024A
:1034900087FF44C0F6CF8B3F39F48091200287FF2D
:1034A0003DC0109220023AC08C3F29F48091200246
:1034B0001816BCF333C0843F21F480911C028E7F28
:1034C00017C0853F21F480911C028D7F11C0863F7B
:1034D00021F480911C028B7F0BC0873F21F48091E7
:1034E0001C02877F05C0883F31F480911C028F7ECB
:1034F00080931C0213C08D3F21F480911A028E7FAD
:103500000BC08E3F21F480911A028D7F05C08F3F42
:1035100029F480911A028B7F80931A0280911D02F8
:1035200081110EC080911E0281110AC080911F027C
:10353000811106C080912002811102C010921902EF
:1035400008958BE192E00E94DD0B0E94AC189093ED
:1035500018028093170208951F93CF93DF938091F1
:103560001702909118020E94B818AC0190911902AC
:10357000992321F02091110130E006C02091120121
:103580008AE0289F900111244217530708F47BC05A
:1035900080911D02C0911E02D0911F021091200245
:1035A000811107C0C1116BC0D11169C0111167C071
:1035B0006AC09F3F19F09F5F90931902181624F478
:1035C0000E94321980931D0280911D0287FF05C061
:1035D0000E943219819580931D021C1624F40E94CA
:1035E000321980931E0280911E0287FF05C00E943F
:1035F0003219819580931E0230911D023323E1F030
:1036000020911E022223C1F045EB3403C001112496
:10361000892F990F990B009709F481E080931D027F
:1036200035EB2303C0011124892F990F990B0097C3
:1036300009F481E080931E021D1624F40E947B1978
:1036400080931F0280911F0287FF05C00E947B1993
:10365000819580931F02111624F40E947B19809398
:1036600020028091200287FF05C00E947B1981956E
:1036700080932002DF91CF911F910C94A11A9F3F5C
:1036800009F099CFA1CFDF91CF911F910895EBE180
:10369000F2E086E0DF011D928A95E9F710921902A7
:1036A00010921A0208958091290208950F931F9392
:1036B000CF93DF9300D01F92CDB7DEB78C010E946D
:1036C000B01D823011F0843021F584E089831B83A2
:1036D0000A8382E08093E9008FEF9091E8008150A7
:1036E00095FD06C095ED9A95F1F700008111F5CF93
:1036F0008091E80085FF0DC040E050E063E070E09D
:10370000CE0101960E94CD1D8091E8008E778093B6
:10371000E8000F900F900F90DF91CF911F910F91C4
:103720000895CF93DF9300D01F92CDB7DEB72091DD
:103730004002243031F523E02983805891099B838E
:103740008A8382E08093E9008FEF9091E8008150B6
:1037500095FD06C095ED9A95F1F700008111F5CF22
:103760008091E80085FF0DC040E050E063E070E02C
:10377000CE0101960E94CD1D8091E8008E77809346
:10378000E8000F900F900F90DF91CF910895CF93A5
:10379000DF93EC010E94B01D823011F08430F9F407
:1037A00082E08093E9009FEF8091E800915085FDD1
:1037B00006C085ED8A95F1F700009111F5CF809153
:1037C000E80085FF0CC040E050E066E070E0CE010C
:1037D0000E94CD1D8091E8008E778093E800DF91F4
:1037E000CF910895CF93DF93EC010E94B01D8230FA
:1037F00011F0843039F581E08093E9008FEF9091EA
:10380000E800815095FD06C095ED9A95F1F700000E
:103810008111F5CF8091E80085FF14C040E050E0B1
:1038200068E070E0CE010E94CD1D8091E8008E77A7
:103830008093E80088E0FE01A1E2B2E001900D92E1
:103840008A95E1F7DF91CF91089580913F02811130
:1038500009C00E94621F0E94BF1F8091E200846025
:103860008093E200089510923F020895089508950C
:103870000C94721842E061EC81E00E94DC1E42E28E
:1038800061EC82E00C94DC1E80914202833009F4EA
:1038900060C030F4813071F0823009F499C008952D
:1038A0008A3009F485C08B3009F46BC0893009F087
:1038B000A7C020C080914102813A09F0A1C0809147
:1038C000E800877F8093E80080914502909146024E
:1038D000892B21F468E081E292E003C060E080E09F
:1038E00090E070E00E94181E8091E8008B77809332
:1038F000E800089580914102813209F081C08091F1
:10390000450290914602029708F07AC08091E80043
:10391000877F8093E8008091E80082FD05C0809158
:1039200040028111F8CF6CC02091F3008091F20029
:1039300090E0922B029729F48091F1008B7F8130E7
:1039400021F48091F100809329028091E8008B7727
:1039500053C080914102813A09F052C080914502E2
:1039600090914602892B09F04BC08091E800877F37
:103970008093E8008091E80080FFFCCF80911D01DA
:1039800036C0809141028132D9F5809145029091F3
:103990004602892BA9F58091E800877F8093E80093
:1039A0000E94111F8091430280931D010C94FB1013
:1039B00080914102813221F58091E800877F8093D8
:1039C000E8000E94111F8091440280932A0208950A
:1039D00080914102813AA1F48091E800877F809331
:1039E000E8008091E80080FFFCCF80912A0280935C
:1039F000F1008091E8008E778093E8000C94111F0D
:103A0000089584B7877F84BF0FB6F894A8958091F6
:103A10006000886180936000109260000FBE80E8B3
:103A200080936100109261000E94240C0E94621F2A
:103A30000E94BF1F8091E20084608093E20078942E
:103A40000E944E220E942A0C83E191E00E94C10B49
:103A500080914002853069F40E94281880913E02CE
:103A60008823B1F30E945A18882391F30E94B71D4E
:103A7000EFCF0E94340CECCF0C943E1D292F33273E
:103A800023303105C9F064F42130310581F0223052
:103A9000310509F04CC08BE390E028EE32E04BC0DA
:103AA0002132310521F12232310589F140C082E114
:103AB00090E023E233E03FC099278130910571F017
:103AC0002CF4892BA1F5E4EEF2E00DC082309105D3
:103AD00041F0039761F5E2EBF2E005C0EAECF2E0B9
:103AE00002C0E8EBF2E0849190E09F0124C06115F0
:103AF000710541F061307105D1F489E090E023E176
:103B000033E019C089E090E02AEF32E014C061157B
:103B1000710541F06130710551F485E890E025E3CD
:103B200033E009C080E490E02AEB33E004C080E099
:103B300090E020E030E0FA01318320830895089579
:103B4000CF93C82F0E949F1DC0932B02CF91089541
:103B500080914002843011F081E0089582E0089560
:103B600080912B02811102C00C94A81D089580E160
:103B700089BD82E189BD09B400FEFDCF8091D800E6
:103B80008F7D8093D8008091E00082608093E00078
:103B90008091E00081FDFCCF0895CF92DF92EF92FB
:103BA000FF920F931F93CF93DF93EC018B016A0178
:103BB0000E94301F811133C0C114D10439F0F601C5
:103BC00080819181081B190BC80FD91FE12CF12CA2
:103BD0000115110519F18091E80085FD16C080914D
:103BE000E8008E778093E800C114D10449F0F60113
:103BF00080819181E80EF91EF182E08285E00FC09C
:103C00000E94301F882321F30AC089918093F1001C
:103C100001501109FFEFEF1AFF0ADACF80E0DF91C0
:103C2000CF911F910F91FF90EF90DF90CF9008956B
:103C300020914702309148022617370748F0611556
:103C4000710539F42091E8002E772093E80001C037
:103C5000B90140E061157105A9F1209140022223CC
:103C600009F443C0253009F442C02091E80023FD47
:103C700040C02091E80022FD32C02091E80020FFE2
:103C8000E9CF4091F3002091F20030E0342BFC01A9
:103C9000CF016115710559F02830310540F481914B
:103CA0008093F100615071092F5F3F4FF1CF41E0E8
:103CB0002830310509F040E02091E8002E7720936C
:103CC000E800C8CF4111C9CF0AC0809140028823C3
:103CD00061F0853061F08091E80083FD0AC0809139
:103CE000E80082FFF2CF80E0089582E0089583E04B
:103CF000089581E0089520914702309148022617E7
:103D0000370748F06115710539F42091E8002E77E6
:103D10002093E80001C0B901FC0120E061157105A4
:103D200091F180914002882309F440C0853009F464
:103D30003FC08091E80083FD3DC08091E80082FD96
:103D40002FC08091E80080FFE9CF2091F30080919F
:103D5000F20090E0922B6115710559F088309105C1
:103D600040F424912093F10031966150710901963D
:103D7000F2CF21E0089709F020E08091E8008E77EB
:103D80008093E800CBCF2111CCCF0AC080914002B4
:103D9000882361F0853061F08091E80083FD0AC0DE
:103DA0008091E80082FFF2CF80E0089582E00895DC
:103DB00083E0089581E00895982F973058F5909307
:103DC000E900981739F07091EC002091ED005091C6
:103DD000F00003C0242F762F50E021FF19C030914E
:103DE000EB003E7F3093EB003091ED003D7F309350
:103DF000ED003091EB0031603093EB007093EC00FC
:103E00002093ED005093F0002091EE0027FF07C0B3
:103E10009F5FD3CF8F708093E90081E0089580E0A9
:103E200008958091410287FF11C08091E80082FDD2
:103E300005C0809140028111F8CF11C08091E80047
:103E40008B770BC080914002882349F08091E80075
:103E500080FFF8CF8091E8008E778093E800089586
:103E60002091E4003091E50095E64091EC00842F2C
:103E7000817040FF22C08091E80080FD1CC08091CD
:103E80004002882391F0853091F08091EB0085FD10
:103E900010C04091E4005091E5004217530729F308
:103EA0009A01915011F784E0089582E0089583E02B
:103EB000089581E0089580E008954091E80042FF70
:103EC000DECF08950E94D01F0E94D81FE0EEF0E0E0
:103ED000808181608083E8EDF0E080818F7780834E
:103EE00019BCA7EDB0E08C918E7F8C9380818F7E82
:103EF000808310923F0208950F931F93CF93DF9317
:103F00000E94D01F0E94D81FC8EDD0E088818F7713
:103F1000888388818068888388818F7D888319BCA5
:103F20001092400210923C0210923E0210923D020A
:103F300000EE10E0F80180818B7F808388818160B2
:103F4000888342E060E080E00E94DC1EE1EEF0E069
:103F500080818E7F8083E2EEF0E0808181608083CB
:103F6000808188608083F80180818E7F8083888152
:103F700080618883DF91CF911F910F910895E8EDC3
:103F8000F0E080818F7E8083E7EDF0E080818160CA
:103F9000808384E082BF81E080933F020C947C1F89
:103FA000E8EDF0E080818E7F80831092E20008953A
:103FB0001092DA001092E10008951F920F920FB64E
:103FC0000F9211242F933F934F935F936F937F939F
:103FD0008F939F93AF93BF93EF93FF938091E100F3
:103FE00082FF0BC08091E20082FF07C08091E10058
:103FF0008B7F8093E1000E944D228091DA0080FF48
:104000001FC08091D80080FF1BC08091DA008E7F96
:104010008093DA008091D90080FF0DC080E189BDD6
:1040200082E189BD09B400FEFDCF81E080934002AA
:104030000E94251C05C019BC109240020E94331C2E
:104040008091E10080FF19C08091E20080FF15C0DF
:104050008091E2008E7F8093E2008091E200806197
:104060008093E2008091D80080628093D80019BCD0
:1040700085E0809340020E94371C8091E10084FF1C
:1040800030C08091E20084FF2CC080E189BD82E1D4
:1040900089BD09B400FEFDCF8091D8008F7D80934B
:1040A000D8008091E1008F7E8093E1008091E20052
:1040B0008F7E8093E2008091E20081608093E20035
:1040C00080913C02882311F084E007C08091E300D6
:1040D00087FD02C081E001C083E0809340020E941E
:1040E000381C8091E10083FF29C08091E20083FFAA
:1040F00025C08091E100877F8093E10082E080937A
:10410000400210923C028091E1008E7F8093E1009A
:104110008091E2008E7F8093E2008091E2008061D6
:104120008093E20042E060E080E00E94DC1E80912B
:10413000F00088608093F0000E94361CFF91EF91A0
:10414000BF91AF919F918F917F916F915F914F91AF
:104150003F912F910F900FBE0F901F9018951F92B7
:104160000F920FB60F9211242F933F934F935F93AB
:104170006F937F938F939F93AF93BF93CF93DF936F
:10418000EF93FF93C091E900CF708091EC00D82F9E
:10419000D17080FDD0E81092E9008091F000877F17
:1041A0008093F00078940E94F3201092E9008091AF
:1041B000F00088608093F000CD2BCF70C093E900B1
:1041C000FF91EF91DF91CF91BF91AF919F918F912F
:1041D0007F916F915F914F913F912F910F900FBE03
:1041E0000F901F9018951F93CF93DF93CDB7DEB735
:1041F000AA970FB6F894DEBF0FBECDBFE1E4F2E0A0
:1042000088E08E0F9091F10091938E13FBCF0E9466
:10421000441C8091E80083FF28C180914102909165
:104220004202492F50E04A30510508F01EC1FA0100
:10423000E556FF4F0C947D22803821F0823809F03A
:1042400014C108C080913D0290913E02992389F0EB
:1042500082600FC0809145028F70873008F005C1E1
:104260008093E9008091EB0085FB882780F910920C
:10427000E9009091E800977F9093E8008093F10027
:104280001092F100D0C0282F2D7F09F0EEC08823B6
:1042900019F0823061F0E9C080914302813009F069
:1042A000E4C0933009F080E080933E022EC08091FC
:1042B000430281112AC0809145028F702FEF280F91
:1042C000263008F0D2C08093E9002091EB0020FF57
:1042D0001CC0933021F48091EB00806214C0909157
:1042E000EB0090619093EB0021E030E0A90102C067
:1042F000440F551F8A95E2F74093EA001092EA00B6
:104300008091EB0088608093EB001092E90080912F
:10431000E800877F8093E8000E94111FA6C08111EA
:10432000A4C0109143021F778091E3008078812B15
:104330008093E3008091E800877F8093E8000E94EB
:10434000111F8091E80080FFFCCF8091E30080681E
:104350008093E300111102C082E001C083E08093EA
:10436000400283C08058823008F07FC080914302B1
:10437000909144028C3D53E0950779F583E08A8360
:104380008AE289834FB7F894DE01139620E03EE07D
:1043900051E2E32FF0E050935700E49120FF03C077
:1043A000E295EF703F5FEF708E2F90E0EA3010F0F3
:1043B000C79601C0C0968D939D932F5F243149F716
:1043C0004FBF8091E800877F8093E8006AE270E049
:1043D000CE0101960E94181E15C060914502709191
:1043E0004602AE014F5F5F4F0E943C1DBC01892B0E
:1043F000E1F19091E800977F9093E80089819A819C
:104400000E947B1E8091E8008B778093E8002DC08E
:10441000803859F58091E800877F8093E80080918B
:104420003C028093F1008091E8008E7773CF811178
:104430001CC0909143029230C0F48091E800877FC5
:104440008093E80090933C020E94111F80913C02EF
:10445000811106C08091E30087FD02C081E001C0A8
:1044600084E0809340020E943A1C8091E80083FF20
:104470000AC08091E800877F8093E8008091EB007C
:1044800080628093EB00AA960FB6F894DEBF0FBE51
:10449000CDBFDF91CF911F9108950895CF93809163
:1044A00040028823A1F0C091E900CF709091EC0008
:1044B000892F817090FD80E8C82B1092E9008091CF
:1044C000E80083FD0E94F320CF70C093E900CF91F4
:1044D000089597FB072E16F4009407D077FD09D0B6
:1044E0000E94832207FC05D03EF4909581959F4F52
:1044F0000895709561957F4F0895EE0FFF1F059009
:10450000F491E02D0994AA1BBB1B51E107C0AA1F1F
:10451000BB1FA617B70710F0A61BB70B881F991F64
:104520005A95A9F780959095BC01CD010895F99908
:10453000FECF92BD81BDF89A992780B50895A8E174
:10454000B0E042E050E00C94CB22262FF999FECF48
:1045500092BD81BDF89A019700B4021639F01FBAD6
:1045600020BD0FB6F894FA9AF99A0FBE08950396F3
:10457000272F0E94A6220E94A522252F0E94A62254
:10458000242F0C94A6220196272F0E94A6220C9479
:10459000A522DC01CB01FC01F999FECF06C0F2BDDA
:1045A000E1BDF89A319600B40D9241505040B8F7F1
:0645B0000895F894FFCF0E
:1045B6004602015901005A010A5A010A0228081442
:1045C6000A321E531BF21BC71B911B561B01F4F527
:1045D600F6F731333236916697C63435000000005F
:0245E6000000D3
:00000001FF
